:1000000012C01FC01EC01DC01CC01BC01AC019C01A
:1000100018C017C016C015C014C013C012C011C03C
:1000200010C00FC00EC011241FBECFEDCDBF10E019
:10003000A0E6B0E001C01D92A336B107E1F71AD0E7
:1000400057C1DECF1F93182F80E474D0882311F49A
:10005000812FCAD060D01F910895CF93DF93EC0118
:1000600081E468D0882311F49CD0888354D0DF9138
:10007000CF910895EF92FF920F931F93DF93CF9349
:100080000F92CDB7DEB7C19AB99ABA98C29AECD09E
:100090007E010894E11CF11C00E21EE4B299FECF3F
:1000A00080916100809580936100C701D6DF88232D
:1000B00069F4809161009981882311F09F7E01C0CD
:1000C000906199838981BEDF882339F024D080FD37
:1000D00004C021D0807AE9F7E8CF1DD0882311F041
:1000E000BB9A01C0BB98C8010197F1F7B29BFECF44
:1000F000C8010197F1F7D2CFC598BD9A8DE08A95D6
:10010000F1F78CE28DB9C79AB79BFECF8DE08A9547
:10011000F1F7BD980895809162000895FC018FB1B8
:100120008083809162008068809362008CE28DB948
:1001300080E008951F93282F759B07C0809162006F
:100140008F758093620080E28EB990916200892F52
:10015000807A21F5BD988DE08A95F1F78CE28DB912
:10016000C79A02C0779902C0B79BFCCF8DE0982F49
:100170009A95F1F7C598BD9A8A95F1F7C79810E856
:1001800010936200822F30D090916200923030F054
:10019000903A21F08CE28DB91EB9C79A892F1F9130
:1001A00008950F931F93082FBD988CE38DB910E02D
:1001B00067D08091620084FF02C010E011C01F5F11
:1001C0001830B1F71FB1002311F0C598BD9A58D06F
:1001D000BD98002329F4789903C081E280936200DE
:1001E000812F1F910F9108950F931F93082F80E384
:1001F0008DB98FEF8FB98CE38DB9BD9A10E007FFF1
:1002000002C0C59A01C0C5983BD09091620094FD90
:1002100028C01F5F07FF13C0789911C0BD9897FFD2
:1002200007C0812F880F8E7029F080648EB902C0BC
:100230008CE28DB9C79A90629093620012C0183018
:1002400011F0000FDCCFBD989F779093620018D01B
:1002500080916200882329F4789B03C081E0809319
:1002600062001F910F91089587B38F7587BB88B384
:10027000806A88BB80EE8EB9BF9A8CE28DB90895F2
:100280008DE08A95F1F78EEC8EB9C79AB79BFECFB9
:100290008DE08A95F1F7C798779B0AC080E9809333
:1002A0006200BD988CE28DB980EC8EB9C79A089532
:1002B000759B09C082E180936200BD988CE28DB984
:1002C00080EC8EB9C79A08958F70806C8EB90CC07F
:1002D000759B04C08CE28DB982E00895779B04C0C1
:1002E0008CE38DB980E80895769BF2CF80E0089585
:0402F000F894FFCFB0
:00000001FF
