:100000000C9434000C9446000C9446000C9446006A
:100010000C9446000C9446000C9446000C94460048
:100020000C9446000C9446000C9446000C94460038
:100030000C9446000C9446000C9446000C94460028
:100040000C9446000C9446000C9446000C94460018
:100050000C9446000C9446000C9446000C94460008
:100060000C9446000C94460011241FBECFEFD4E040
:10007000DEBFCDBF11E0A0E0B1E001C01D92A33012
:10008000B107E1F70E9466000C949B010C940000FC
:100090001F93182F80E40E94BD00882319F4812F3C
:1000A0000E9470010E94BA001F910895CF93DF93C0
:1000B000EC0181E40E94BD00882319F40E944A01EA
:1000C00088830E94BA00DF91CF910895EF92FF924A
:1000D0000F931F93DF93CF930F92CDB7DEB729987D
:1000E00084B18A6084B922982A9A289A80E260E0D2
:1000F0000E9493017E010894E11CF11C00E21EE4C1
:100100001A99FECF80910101809580930101C7016A
:100110000E945600882371F48091010199818823FF
:1001200011F09F7701C09068998389810E944800EF
:10013000882361F00E94BA0080FF03C00E94B600CD
:1001400005C00E94BA00807AE1F7E1CF0E94BA00B0
:10015000882311F0209A01C02098C8010197F1F777
:100160001A9BFECFC8010197F1F7CACF84E98093AB
:10017000BC000895809102010895282F8091B90054
:1001800090E0887F90708830910549F0409739F071
:1001900084EA8093BC008091BC0087FFFCCF8091F3
:1001A000BC008F758093BC008091B90090E0887F7F
:1001B000907080319105B9F0813191053CF4009740
:1001C00009F453C0089709F053C00DC0803791055A
:1001D00009F447C0883A910509F443C08036910577
:1001E00009F046C03EC0822F0E9466018091B9008E
:1001F00090E0887F90708034910519F181349105E9
:100200007CF488319105E9F0893191051CF4892B42
:10021000F9F021C080329105B9F0C897E1F416C019
:100220008836910599F08936910524F48834910532
:1002300091F40AC08837910549F0803B910559F443
:1002400005C0109202010AC081E006C080EA04C025
:1002500084E98093BC0080E18093020180910201D7
:10026000089580EA80930201089584E98093BC0098
:1002700080E1809302010895882311F084EC01C08D
:1002800084E88093BC008091BC0087FFFCCF809104
:10029000BB0008950E943C01282F8091B90090E096
:1002A000887F90708035910531F08835910519F07F
:1002B000892B21F006C01092020106C084E98093C8
:1002C000BC0080E180930201822F08958093BB00DF
:1002D00084EC8093BC008091BC0087FFFCCF089524
:1002E0000E9466018091B90090E0887F9070803311
:1002F000910571F0813391052CF4009769F088978E
:1003000071F403C0C89759F405C010920201089512
:1003100081E006C080E204C084E98093BC0080E1F3
:100320008093020108958093B8006093B90084E03F
:0A0330008093BC000895F894FFCFFD
:00000001FF
