:100000000C9434000C9446000C9446000C9446006A
:100010000C9446000C9446000C9446000C94460048
:100020000C9446000C9446000C9446000C94460038
:100030000C9446000C9446000C9446000C94460028
:100040000C9446000C9446000C9446000C94460018
:100050000C9446000C9446000C9446000C94460008
:100060000C9446000C94460011241FBECFEFD4E040
:10007000DEBFCDBF11E0A0E0B1E001C01D92A13014
:10008000B107E1F70E9448000C940A010C940000AB
:100090000F931F93CF93DF9385B18C7F85B984B184
:1000A000836084B92A9A80E260E00E94020100E045
:1000B000C0E2DEE41A99FECF009511F0299A01C042
:1000C000299884E40E948F00182F882319F4802F28
:1000D0000E94E50081E40E948F00182B49F480E023
:1000E0000E94BC0080E40E948F00802F0E94E500E7
:1000F0000E948800112311F0289A01C02898CE018F
:100100000197F1F71A9BFECFCE010197F1F7D2CFFD
:1001100084E98093BC000895809100010895982F90
:100120001092000184EA8093BC008091BC0087FF9C
:10013000FCCF892F0E94DB008091B90090E0887F7E
:1001400090708032910561F0813291051CF44897DE
:1001500059F40FC08034910561F08834910521F481
:1001600080910001816003C08091000180618093D3
:100170000001809100010895882311F084EC01C0F2
:1001800084E88093BC008091BC0087FFFCCF209165
:10019000BB008091B90090E0887F90708035910518
:1001A00041F08835910529F08091000180618093AC
:1001B0000001822F08958093BB0084EC8093BC00E3
:1001C0008091BC0087FFFCCF08958093BB0084EC36
:1001D0008093BC008091BC0087FFFCCF8091B90068
:1001E00090E0887F90708832910559F0209100014D
:1001F000C09721F42160209300010895206120938D
:10020000000108958093B8006093B90084E0809362
:08021000BC000895F894FFCF33
:00000001FF
