:1000000012C01FC01EC01DC01CC01BC01AC019C01A
:1000100018C017C016C015C014C013C012C011C03C
:1000200010C00FC00EC011241FBECFEDCDBF10E019
:10003000A0E6B0E001C01D92A336B107E1F703D0FE
:10004000EEC0DECF0895EF92FF920F931F93DF93E0
:10005000CF930F92CDB7DEB7C198B99ABDD004E463
:100060007E010894E11CF11C0983C70160E01CD0EB
:100070008823D1F3898180FF0BC0809160008F5F5E
:1000800080936000815085D064D08823B1F3ECCF99
:100090008FEF62D0182F5DD0882331F7112311F034
:1000A000C19AF6CFC198F4CF0F931F93CF93DF93EC
:1000B000EC01162F8CE28DB9759B05C08091610013
:1000C0008F7780936100779B3EC01092610008811A
:1000D000B799FECF8CE38DB980E08DD0809361001D
:1000E000882389F52FB1288380916200882321F12C
:1000F000612F70E0422F50E04E7F50709B012095A1
:10010000309524233523109510231E7F812F90E0F6
:100110002817390721F060FF0FC0452B69F4C598F7
:10012000BD9A109161008EE066D0182B109361008B
:10013000BD98C59A8FEF08C0809161008068809358
:1001400061008CE28DB980E0DF91CF911F910F911A
:1001500008958091610008950F931F93082F8CE3F9
:100160008DB91091610080E046D0812B80936100B1
:100170001FB1882351F4002311F0C598BD9A8EE079
:100180003AD080936100BD98C59A812F1F910F913D
:1001900008951F9398E39DB98FB9BD9A109161009E
:1001A00080E029D0812B80936100BD98882379F469
:1001B0008CE38DB98EE01FD080936100882339F4E1
:1001C000789B05C081E0809361008CE28DB91F911E
:1001D000089580936200089587B38F7587BB88B3B5
:1001E000806A88BB80EE8EB9BF9A8CE28DB98FEFA2
:1001F0008093620008958F70806C8EB90CC0759BDF
:1002000004C08CE28DB982E00895779B04C08CE332
:100210008DB980E80895769BF2CF80E00895F89438
:02022000FFCF0E
:00000001FF
