:100000000C9434000C9446000C9446000C9446006A
:100010000C9446000C9446000C9446000C94460048
:100020000C9446000C9446000C9446000C94460038
:100030000C9446000C9446000C9446000C94460028
:100040000C9446000C9446000C9446000C94460018
:100050000C9446000C9446000C9446000C94460008
:100060000C9446000C94460011241FBECFEFD4E040
:10007000DEBFCDBF11E0A0E0B1E001C01D92A43011
:10008000B107E1F70E94AD000C94CC020C94000083
:100090001F93182F80E40E947701882319F4812F81
:1000A0000E9465020E9474011F9108951F93182FEA
:1000B00084E40E947701882319F4812F0E9465024D
:1000C0000E94740185FD02C00E946E010E947401AD
:1000D0001F910895CF93DF93EC0181E40E94770193
:1000E000882319F40E94FC0188830E947401DF9127
:1000F000CF9108951F93DF93CF930F92CDB7DEB7C3
:1001000082E48983CE0101960E941901882301F1BE
:10011000898180FF0DC0809100018F5F8093000175
:1001200081500E948A020E9474018823A1F310C0AA
:100130008FEF0E942402182F0E947401882341F43B
:10014000112321F085B18A6085B9F2CF2998F0CFCB
:100150000F90CF91DF911F910895EF92FF920F932F
:100160001F93DF93CF930F92CDB7DEB7299884B159
:100170008A6084B922982A9A289A82E460E040E250
:1001800020E00E94BD027E010894E11CF11C00E207
:100190001EE40E947A001A99FCCF8091010180959B
:1001A00080930101C7010E946A00882371F4809145
:1001B00001019981882311F09F7701C0906899838C
:1001C00089810E944800882361F00E94740180FFA9
:1001D00003C007C00E947A000E947401807A11F364
:1001E000F9CF0E947401882311F0209A01C0209851
:1001F000809101010E9456008E7F19F407C00E9471
:100200007A000E947401807A99F3F9CF0E947401F8
:10021000882311F0209A01C02098C8010197F1F7B6
:1002200002C00E947A001A9BFCCFC8010197F1F727
:10023000B0CFFC018091B90090E0887F9070883742
:100240009105B9F18937910594F480369105A9F1AA
:10025000813691052CF40097B9F1C897D1F527C0E4
:100260008836910531F18037910599F526C0803B9C
:100270009105F9F0813B91053CF4803A910569F0D4
:10028000883A910531F519C0883C910531F0883FD5
:10029000910559F0803C9105E1F482E080930201E0
:1002A0008091030184688093BC0080E0089580E819
:1002B000F5CF80E28093020102C01092020180918A
:1002C000BB0080838FEF0895809103018469809340
:1002D000BC0080E18093020180E0089580910301D9
:1002E00084698093BC000895809102010895282FAD
:1002F0008091B90090E0887F90708830910559F026
:10030000409749F080910301846A8093BC008091FA
:10031000BC0087FFFCCF8091BC008F758093BC0030
:100320008091B90090E0887F907080319105B9F09C
:10033000813191053CF4009709F455C0089709F004
:1003400057C00DC08037910509F449C0883A91051E
:1003500009F445C08036910509F04AC040C0822F9B
:100360000E945B028091B90090E0887F9070803499
:10037000910519F1813491057CF488319105E9F0FA
:10038000893191051CF4892BF9F023C08032910545
:10039000B9F0C897F1F416C08836910599F08936FE
:1003A000910524F488349105A1F40AC08837910599
:1003B00049F0803B910569F405C0109202010CC020
:1003C00081E008C080EA06C08091030184698093BF
:1003D000BC0080E18093020180910201089580EACF
:1003E0008093020108958091030184698093BC0089
:1003F00080E1809302010895882311F084EC01C00C
:1004000084E88093BC008091BC0087FFFCCF2091E2
:10041000BB008091B90090E0887F90708035910595
:1004200031F08835910519F0892B21F008C0109220
:10043000020108C08091030184698093BC0080E1BF
:1004400080930201822F0895882311F084EC01C06B
:1004500084E88093BC008091BC0087FFFCCF209192
:10046000BB008091B90090E0887F9070883891053A
:10047000A9F08938910534F4009799F080389105F6
:10048000A9F40CC08839910549F0803A910521F012
:100490008039910559F402C082E009C0109202012E
:1004A00008C08091030184698093BC0080E180933F
:1004B0000201822F08958093BB0084EC8093BC00DE
:1004C0008091BC0087FFFCCF08950E945B02809161
:1004D000B90090E0887F90708033910571F081338E
:1004E00091052CF4009769F0889781F403C0C897B0
:1004F00069F405C010920201089581E008C080E20D
:1005000006C08091030184698093BC0080E18093E0
:10051000020108950E945B028091B90090E0887FFB
:100520009070883B910569F0893B91051CF4892BFB
:1005300069F011C0803C910539F0883C910559F46F
:1005400003C010920201089582E006C08091030169
:1005500084698093BC0080E1809302010895882320
:1005600021F080E48093030102C010920301809186
:10057000030184608093BC0008954093B8002093E9
:10058000B9008093BA006093BD0080E480930301BA
:0C05900084E48093BC000895F894FFCF31
:00000001FF
