:1000000012C01FC01EC01DC01CC01BC01AC019C01A
:1000100018C017C016C015C014C013C012C011C03C
:1000200010C00FC00EC011241FBECFEDCDBF10E019
:10003000A0E6B0E001C01D92A436B107E1F755D0AB
:1000400052C2DECF1F93182F80E42CD1882311F4E5
:10005000812F9FD1EDD01F9108951F93182F82E417
:1000600021D1882311F4812F94D1E2D085FFD1D002
:10007000DFD01F910895CF93DF93EC0181E412D17B
:10008000882311F446D18883D3D0DF91CF9108958E
:100090001F93DF93CF930F92CDB7DEB784E48983AC
:1000A000CE01019660E079D08823D1F0898180FF6C
:1000B0000BC0809160008F5F809360008150A9D158
:1000C000B7D08823B1F30CC08FEF46D1182FB0D032
:1000D000882331F4112311F0C198F6CFC19AF4CFDF
:1000E0000F90CF91DF911F910895EF92FF920F93A0
:1000F0001F93DF93CF930F92CDB7DEB7C19AB99A12
:10010000BA98C29AA9D17E010894E11CF11C00E2C0
:100110001EE4BEDFB299FDCF80916100809580938F
:100120006100C701A8DF882369F48091610099818B
:10013000882311F09F7E01C090619983898182DFBD
:10014000882349F075D080FF02C005C0A1DF70D0C0
:10015000807A39F3FBCF6CD0882311F0BB9A01C0B1
:10016000BB988091610079DF8E7F11F405C090DF2C
:100170005FD0807AB1F3FBCF5BD0882311F0B89ABF
:1001800001C0B898C8010197F1F701C081DFB29BA7
:10019000FDCFC8010197F1F7BCCF1F93CF93DF9339
:1001A000EC01162F90916200903A91F480E88093D0
:1001B00062000BC0759B04C0109262008CE203C009
:1001C000779B03C08CE38DB91FC0769BF3CF18C01B
:1001D0008CE28DB9759B05C09F759093620080E29B
:1001E0008EB9779B11C0B799FECF8CE38DB982E0B1
:1001F0008A95F1F780E063D180936200882321F42F
:10020000CE01612F18D001C080E0DF91CF911F9106
:100210000895C598BD9A8DE08A95F1F78CE28DB965
:10022000C79AB79BFECF8DE08A95F1F7BD980895E8
:100230008091620008951F93FC0190812FB120836B
:1002400080916300882321F1E62FF0E0422F50E0F7
:100250004E7F50709F012095309524233523609563
:1002600069236E7F862F90E02817390721F0E0FF81
:100270000FC0452B69F4C598BD9A109162008EE0BD
:100280001ED1182B10936200BD98C59A8FEF08C03D
:10029000809162008068809362008CE28DB980E07A
:1002A0001F9108951F93282F759B07C080916200AE
:1002B0008F758093620080E28EB990916200892FE1
:1002C000807A21F5BD988DE08A95F1F78CE28DB9A1
:1002D000C79A02C0779902C0B79BFCCF8DE0982FD8
:1002E0009A95F1F7C598BD9A8A95F1F7C79810E8E5
:1002F00010936200822F4DD090916200923030F0C6
:10030000903A21F08CE28DB91EB9C79A892F1F91BE
:1003100008950F931F93082FBD988CE38DB910E0BB
:10032000AAD08091620084FF02C010E011C01F5F5C
:100330001830B1F71FB1002311F0C598BD9A9BD0BA
:10034000BD98002329F4789903C081E2809362006C
:10035000812F1F910F9108950F931F93082F8CE306
:100360008DB91091620080E0AAD0812B8093620049
:100370001FB1882351F4002311F0C598BD9A8EE077
:100380009ED080936200BD98C59A812F1F910F91D6
:1003900008950F931F93082F80E38DB98FEF8FB9C6
:1003A0008CE38DB9BD9A10E007FF02C0C59A01C069
:1003B000C59861D09091620094FD28C01F5F07FF2F
:1003C00013C0789911C0BD9897FF07C0812F880F7F
:1003D0008E7029F080648EB902C08CE28DB9C79A04
:1003E00090629093620012C0183011F0000FDCCFC1
:1003F000BD989F77909362003ED0809162008823E1
:1004000029F4789B03C081E0809362001F910F91D3
:1004100008951F9398E39DB98FB9BD9A109162001A
:1004200080E04DD0812B80936200BD98882379F4C1
:100430008CE38DB98EE043D080936200882339F439
:10044000789B05C081E0809362008CE28DB91F919A
:10045000089580936300089587B38F7587BB88B331
:10046000806A88BB80EE8EB9BF9A8CE28DB98FEF1F
:100470008093630008958DE08A95F1F78EEC8EB934
:10048000C79AB79BFECF8DE08A95F1F7C798779B07
:100490000AC080E980936200BD988CE28DB980EC3F
:1004A0008EB9C79A0895759B09C082E18093620056
:1004B000BD988CE28DB980EC8EB9C79A08958F7083
:1004C000806C8EB90CC0759B04C08CE28DB982E043
:1004D0000895779B04C08CE38DB980E80895769BDE
:0A04E000F2CF80E00895F894FFCFFA
:00000001FF
